:0E0000000C9430000C9400000C9400000C9442
:10000E0000000C9400000C9400000C9400000C9462
:10001E0000000C9400000C9400000C9400000C9452
:10002E0000000C9400000C9400000C9400000C9442
:10003E0000000C9400000C9400000C9400000C9432
:10004E0000000C94000000000000040004005400A6
:10005E000000F894EE27ECBBF1E0FBBFEBBFE5BF71
:10006E008DE0A2E0BB27ED938A95E9F780E094E05E
:10007E00A0E6ED930197E9F7E8E5F0E0859195911B
:10008E00009761F0A591B59105901590BF01F00113
:10009E0005900D920197E1F7FB01F0CFEFE5EDBF73
:1000AE00E4E0EEBFC0E6D1E00C945D00EFEFE7BBFD
:1000BE00E0E0EABB5AD066247724C89B50C0062CD9
:1000CE00072809F04BC0E1E0F0E03F01442455243D
:1000DE004CD0F201309719F4C098C79A30C0E13075
:1000EE00A0E0FA0719F4C198C09A29C0E230A0E046
:1000FE00FA0719F4C298C19A22C0E330A0E0FA07B9
:10010E0019F4C398C29A1BC0E430A0E0FA0719F4A0
:10011E00C498C39A14C0E530A0E0FA0719F4C59844
:10012E00C49A0DC0E630A0E0FA0719F4C698C59A35
:10013E0006C0E730A0E0FA0711F4C798C69AF2019C
:10014E0031962F01E7E0F0E0E415F50514F44424B0
:10015E005524A2E3B0E00E94C500BBCF04C0C899ED
:10016E0002C066247724A9CFFFCFC09AC19AC29A43
:10017E00C39AC49AC59AC69AC79A0895109639F02A
:10018E00A89588EB9BE00197F1F71197C9F70895B1
:00000001FF
